:020000040800F2
:1000000078070020D50000081721000815210008F6
:1000100000000000000000000000000000000000E0
:100020000000000000000000000000001B2100088C
:100030000000000000000000192100081D21000838
:10004000E7000008E7000008E7000008E7000008F4
:10005000E7000008E7000008E7000008E7000008E4
:10006000E7000008E7000008E7000008E7000008D4
:10007000E7000008E7000008E7000008E7000008C4
:10008000E7000008E7000008E7000008E7000008B4
:10009000E7000008E7000008E7000008E7000008A4
:1000A000E7000008E7000008E7000008E700000894
:1000B000E7000008E7000008E70000083524000812
:1000C0000348854600F058F8004800478925000895
:1000D000780700200448804704480047FEE7FEE711
:1000E000FEE7FEE7FEE7FEE725210008C100000865
:1000F00003460B439B0703D009E008C9121F08C041
:10010000042AFAD203E00B780370401C491C521EEB
:10011000F9D27047D2B201E00270401C491EFBD2F6
:1001200070470022F6E710B513460A460446194602
:10013000FFF7F0FF204610BD70B50446002903D03C
:1001400000202022012310E0002801D00020C0431D
:10015000C046C0460DE02546D5408D4205D30D462C
:100160009540641B1D46954040191546521E002DB2
:10017000F1DC214670BD0000064C0125064E05E06D
:10018000E36807CC2B430C3C98471034B442F7D3B8
:10019000FFF79AFF84300008A430000830B58C18AF
:1001A0000278401C13071B0F01D10378401C120971
:1001B00006D10278401C03E005780D70401C491CF4
:1001C0005B1EF9D101E00B70491C521EFBD1A1420C
:1001D000E6D3002030BD000010B50D490A680723A2
:1001E0009A430A600A689206520FFBD10122130655
:1001F00008390C689C430C600168064B0B405107A2
:100200008B4204D14168006880F30888884710BD9C
:10021000081002400000FC2F10B582B0DD4C04E055
:100220000120000321680143216000F077FF20686E
:100230008006F5D56068C0B27F28F1D1064800215C
:100240000170204600F094FE01A87921017001217F
:1002500000F0F4FA02B010BD60030020F0B58DB0DC
:10026000CC4804AC0222214600F0ECFE27786078EE
:100270007840C0B2FF2800D020E20024C64E442FB0
:1002800000D98FE0B80002A1095820468F46C04629
:10029000BD030008BD030008BD030008BD0300083E
:1002A0005B0700085B0700085B0700085B070008A6
:1002B0005B0700085B0700085B0700085B07000896
:1002C0005B0700085B0700085B0700085B07000886
:1002D0005B070008BD0300085B0700085B07000818
:1002E0005B0700085B0700085B0700085B07000866
:1002F0005B0700085B0700085B0700085B07000856
:100300005B0700085B0700085B0700085B07000845
:100310005B070008BD0300085B0700085B070008D7
:100320005B0700085B0700085B0700085B07000825
:100330005B0700085B0700085B0700085B07000815
:100340005B0700085B0700085B0700085B07000805
:100350005B070008BD0300085B0700085B07000897
:100360005B0700085B0700085B0700085B070008E5
:100370005B0700085B0700085B0700085B070008D5
:100380005B0700085B0700085B0700085B070008C5
:100390005B0700085B0700085B0700085B070008B5
:1003A000BD030008384673381F2804D80121814056
:1003B000FB48014202D1632F00D0BBE1684679219E
:1003C00001700125294600F039FA442F00D99AE03E
:1003D000B80002A1095820468F46C046F104000823
:1003E000B3060008C7060008D30600085B0700082C
:1003F0005B0700085B0700085B0700085B07000855
:100400005B0700085B0700085B0700085B07000844
:100410005B0700085B0700085B0700085B07000834
:10042000EB0600085B0700085B0700085B07000895
:100430005B0700085B0700085B0700085B07000814
:100440005B0700085B0700085B0700085B07000804
:100450005B0700085B0700085B0700085B070008F4
:10046000F70600085B0700085B0700085B07000849
:100470005B0700085B0700085B0700085B070008D4
:100480005B0700085B0700085B0700085B070008C4
:100490005B0700085B0700085B0700085B070008B4
:1004A0001F0500085B0700085B0700085B070008E2
:1004B0005B0700085B0700085B0700085B07000894
:1004C0005B0700085B0700085B0700085B07000884
:1004D0005B0700085B0700085B0700085B07000874
:1004E0005B0700085B0700085B0700081F050008A2
:1004F0006846B6490180801CB5490C22FFF7F8FD1B
:100500000E24284629E1384673381F2804D80121D3
:100510008140A348014202D1632F00D00AE1301F7D
:100520000068C00300D5C9E03068002826D53046F1
:100530000C389C4901609C4901609C480168CAB222
:100540009B490A600268120AD2B20A610268D201AB
:10055000D20D4A608268D2B28A6082685201520D1E
:10056000CA600269934B1A404A6182691A408A61E3
:10057000026A92B2CA61006A000C0862622F00DD52
:10058000BCE0442F00D9D5E0B80004A109582046AA
:100590008F46C0460038014014200240B1060008D2
:1005A000B3060008C7060008D30600085B0700086A
:1005B0005B0700085B0700085B0700085B07000893
:1005C0005B0700085B0700085B0700085B07000883
:1005D0005B0700085B0700085B0700085B07000873
:1005E000EB0600085B0700085B0700085B070008D4
:1005F0005B0700085B0700085B0700085B07000853
:100600005B0700085B0700085B0700085B07000842
:100610005B0700085B0700085B0700085B07000832
:10062000F70600085B0700085B0700085B07000887
:100630005B0700085B0700085B0700085B07000812
:100640005B0700085B0700085B0700085B07000802
:100650005B0700085B0700085B0700085B070008F2
:10066000390700085B0700085B0700085B07000804
:100670005B0700085B0700085B0700085B070008D2
:100680005B0700085B0700085B0700085B070008C2
:100690005B0700085B0700085B0700085B070008B2
:1006A0005B0700085B0700085B0700083F070008BE
:1006B0001EE7684600218170102108E068461F216E
:1006C0000170012167E06846482181703E49018040
:1006D00008E0684605703B490A681205120F42702F
:1006E000096881700324284637E000F013FB0128D5
:1006F00033D10DB0F0BD00F041F92EE0812F0CDCBC
:10070000632F1FD0732F15D104A92B4808821F20F7
:1007100008802B48083011221DE0822F15D0922F1F
:1007200008D104A9244808831F220A81234808808D
:10073000234810E0204610E000F086FD0DE000F0B8
:10074000AFF80AE000F09AFE07E004A9552008700F
:100750001B480024224600F0FFFD722F06DC312FDB
:100760000CD0442F0AD0632F08D00CE0733F1F2F0A
:1007700009D80121B9400A4A114204D00121C90710
:1007800032680A433260012801D01F2100E079213C
:1007900068460155611C00F051F80DB0F0BDC0462F
:1007A0000180008023016745AB89EFCDD832FF1F60
:1007B00000210240FFFF0100FFFF0000AAD8000057
:1007C0000031FF1F00580140010400000C10000020
:1007D0005830000880B50A460146B548007805281B
:1007E00020D8C046784400794000874402060A0EAB
:1007F00012172A4800F026FC80BD274800F022FC92
:1008000080BD244800F01EFC80BD214800F01AFC89
:1008100080BD0846114601F02DFE80BD08461146F8
:1008200000F058F980BDC04680B582B001AA1070B2
:100830000121104600F002F802B080BD80B50A46E2
:1008400001469B480078052820D8C04678440079A6
:100850004000874402060A0E1217104800F01AFCE6
:1008600080BD0D4800F016FC80BD0A4800F012FC67
:1008700080BD074800F00EFC80BD0846114601F01F
:1008800031FE80BD0846114600F06EF980BDC046BD
:10089000004C004000480040004400400038014047
:1008A000F0B503AF93B06E46F41D05340221204627
:1008B000FFF790FF2178607804464C40FF293DD037
:1008C000316070604000B060C11CF51D05352846E0
:1008D000FFF780FFB368981C01462A7854406D1CCE
:1008E000491E0A04F9D1F11D0531085CE1B28842C4
:1008F00030D1D81D072188436946B1606946081A7E
:100900008546002175680A06D20DF31D05339C1833
:1009100064789B5C1B021B198352491CCAB2954226
:10092000F1D23168202919D010291BD00029B468D0
:100930001ED10422716800F09DF91AE0F51D0535FD
:10094000A81C0121FFF746FFA878A04204D100F0BF
:1009500055F90FE000200DE000200BE0716800F079
:1009600031FA03E00122716800F084F9B46800E014
:100970000020A546FC1F053CA546F0BDB0B582B0E1
:1009800001A800F019FE0124E143C01E884201D2F3
:1009900000248AE046480278042A00D062B6027831
:1009A0004448052A66D8C0467A44127952009744D2
:1009B000021723313F4B02690A400261C369434A6F
:1009C0001340C361036823430360A303C5681D4349
:1009D000C56003680B400360C1681140C16049E015
:1009E00002690A4002618369374A134083610368E0
:1009F00023430360630434E00223D94302690A40BD
:100A0000026185692F4A1540856105681D430560AF
:100A1000A30426E00423D94302690A4002618569E0
:100A2000274A1540856105681D430560E30418E009
:100A300002690A40026183691F4A134083610368A7
:100A400023430360E3050CE00223D94302690A4013
:100A500002618569194A1540856105681D43056075
:100A6000630585681D43856003680B4003608168EA
:100A70001140816002461C3A1168072399431160B6
:100A8000019913689B065B0FFBD12206243803688B
:100A90009343036008680E4A02406007824204D113
:100AA0004868096881F308888047204602B0B0BDD5
:100AB0006003002024100240FFFF7FFFFFFFDFFFE5
:100AC000FFFFF7FFFFFFFBFFFFFFFDFFFFBFFFFF84
:100AD0000000FC2FF0B583B00C46054600200290C4
:100AE0000122D002434E3746143F396881433960B2
:100AF000019291023868009108433860306880079D
:100B000002D400F00BFBF9E73068029070680290A5
:100B1000002C02D113E000F001FB30684006FAD54A
:100B2000301F016829703168490702D4641E6D1CAA
:100B300003E000686870A41EAD1C2004EDD130688D
:100B4000C00604D400F0EAFA3068C006FAD530686E
:100B500002903868019908433860386800998843E2
:100B6000386003B0F0BDC046F0B583B00C46054612
:100B7000002002900120C1021E4F3B46143B1A6820
:100B80008A431A60860218683043019318603868F7
:100B9000800702D400F0C2FAF9E73868029078685A
:100BA0000290002C02D113E000F0B8FA3868000679
:100BB000FAD52978381F01603968490702D4641EC4
:100BC0006D1C03E069780160A41EAD1C2004EDD10A
:100BD0003868304204D100F0A1FA38683042FAD0C7
:100BE0003868054908403860019A1068084010606C
:100BF00003B0F0BD14540040FFFBFFFFF0B583B01D
:100C00000124E1066E4800788007400E2030800203
:100C100002914018154F0190B84224D9804D686860
:100C20008049084368600320C0063E18104806400B
:100C300000F074FA0020C143029AB1502968C90338
:100C4000FCD46968784A114069602968214003D062
:100C50002868204328602046002904D061037F18BB
:100C600001998F42DBD3C0B203B0F0BD0040000851
:100C700000E0FF1FF0B585B01446019100900021FF
:100C800001200390664F214D084607E001200390A4
:100C90000298401CC1B2019A914233D80290002CB4
:100CA000F6D04800009908180490002602E0761C4F
:100CB000A642EBD078682843786000F02FFA0498B9
:100CC00000886043801902023D4800788007400E8A
:100CD000203080029042EAD928460121CB06002527
:100CE0000395ED43D5503A68D203FCD47A68084B9B
:100CF0001A407A603A68D2070546C9D03868084376
:100D00003860D4E70398C0B205B0F0BD020000011E
:100D1000FDFFFFFE70B584B002A800F04DFC00247A
:100D2000002843D005466E4602213046FFF752FDAB
:100D3000307871784140FF2938D103A879210170BA
:100D400001242146FFF77AFD02981A49884205D00E
:100D50001949884202D01949884214D1701C184997
:100D60000A786B4600259D709207520E20325A7009
:100D700009781D710C220A40111DD9701978491C7F
:100D8000FFF75CFD12E0012D04D1E1490968C9B209
:100D9000AA2905D169460978491CFFF74FFD05E0EE
:100DA00068460078411C0020FFF748FD204604B04B
:100DB00070BDC046227AFF1FE0F7FF1FCCF7FF1F70
:100DC000FC31FF1FF0B583B0019102900024144F55
:100DD00026467868134908437860F5B200F09EF91A
:100DE00068000299085A41030120C206E3438B5070
:100DF0003968C903FCD479680B4A114079603968B5
:100E0000C90709D0396801433960761CF1B2019AEB
:100E10009142DED903B0F0BD002003B0F0BDC04662
:100E20001020024000080001FFF7FFFE70B50446E5
:100E30007D4884421FDC7F4884423CD07E48844207
:100E40006DD14748016802220A43026003218905E7
:100E50007B4AD3688B4301218D055B19D3601368EE
:100E6000AB4313608B03556A1D4355628904826846
:100E70000A43826053E06D48844236D06C48844215
:100E80004DD13748026801210A430260032212054E
:100E900005231B07DD6895430A05AD18DD601D6855
:100EA00095431D600A025D6A15435D628903C2684D
:100EB0000A43C26033E02A48026801210A43026003
:100EC00005221207D368274D2B405B195B1CD360AA
:100ED0008B0715689D4315600B07556A1D435562C6
:100EE000490482680A43826019E01D4801680422AF
:100EF0000A43026003218A055049CB6893430122CB
:100F000095055B19CB600B68AB430B600F231B038C
:100F10004D6A9D434D62D10482680A43826001207C
:100F20004503E168A943E160E1680F4E3140E160AB
:100F30008002E1688143E160E12108020B4A126806
:100F400010184902FFF7F8F8A0606069304060614E
:100F5000E06804210143E160E0682843E06070BD7F
:100F600034100240FFFFFF3FFFEFFFFF08000020AB
:100F700010B501210A034369934343612A4A904211
:100F800015DC2C4A904229D02B4A904247D10322AB
:100F900012052B4BDC6894430A05A418DC601C681E
:100FA00094431C6089025A6A0A435A6237E01F4A16
:100FB000904224D01E4A904231D10322920405234C
:100FC0001B07DC68944389046218DA601A688A4354
:100FD0001A60596A10220A435A6220E0032212075B
:100FE00005231B07DC6894430A07A418DC601C680F
:100FF00094431C6009065A6A0A435A620FE00322AE
:1010000012050E4BDC68944309056218DA601A6811
:101010008A431A600F2109025A6A8A435A62C168D8
:1010200008220A43C26010BDFF4B0040004C004044
:1010300000380140004400400048004000080050D3
:1010400000040050F0B581B0002A1CD00D460646C1
:101050000E4F0F4C05E0706828706D1C009A10044C
:1010600011D0521E009201E000F058F8306880065E
:10107000F1D43868401C3860A042F5D300203860B5
:1010800000F050FAF0E701B0F0BDC046C801002002
:1010900051C3000070B50446002A0ED015460E4616
:1010A00002E0761C280408D0307860606D1E20684D
:1010B0000006F6D400F032F8F9E72068400604D4C0
:1010C00000F02CF820684006FAD5206840218843BB
:1010D000206070BD10B50E4A13680E494C1C1448B0
:1010E000234204D10323DB0144681C43446012689B
:1010F0001205104A04D4084B136007235360916013
:1011000001687F230B4303600B48106010BDC0468D
:1011100020200240FF0F00005555000004480168E0
:101120007F220A4302600348034901607047C046BA
:10113000002C004000300040AAAA0000F0B585B0A5
:101140000C46C7B2002F054619D0E3190492154684
:10115000665D5E556D1E6E1CFAD3FF230390054637
:101160009D4302973B4626462F46397831705B1ED9
:10117000761C7F1C002BF8D1049A0398029F531C05
:10118000002F02D1D9B200290ED0D919C018FE30D3
:10119000FF229043431B8B4206D908464A5D6254A6
:1011A000401C81B28B42F9D8180AC0B203900028C3
:1011B000019331D00026AC4F04960296FFF7AEFFA4
:1011C00038681F4908433860029804E0361D411C06
:1011D0003F28084609D2A159A9513E28F6D101213C
:1011E000C9043A680A433A60F0E7391F0868C00347
:1011F000FBD43868134A104038600868C0070DD027
:101200000A68012002430A600499491C049189B2CA
:10121000039A9142D2D302E0012000E00020019B1A
:10122000190408D029682268914206D1241D2D1D79
:101230001B1F1904F6D105B0F0BD002005B0F0BDAC
:1012400001000001FEFFFFFEF0B5FFB0FFB09BB054
:10125000FFAF5C37FFA85C3000F0AEF9FFA9643146
:1012600008700878012809D0FFA8643000780228A7
:1012700004D0FFA864300078032851D103A80124CA
:101280002146FFF7A7FA039E03AD28462146FFF744
:10129000A1FA300229784018FFA960310880088837
:1012A0008921C9000025884251D802977868001D1D
:1012B00081B203AE3046FFF78DFAFFA86030018897
:1012C000715C09060288921952781204511802883A
:1012D000921992781202891802889219D2788F187E
:1012E0000188304601F0AAF8B84230D1FFA8643036
:1012F0000078012816D003281FD0022827D1029990
:1013000048680020096882B203AB9B5C8B54FFAA3B
:1013100060321288401C83B29A42F4D2254616E00D
:10132000002514E0FFA86030018802980068CAB266
:1013300003A9FFF703FF054609E0FFA86030018815
:1013400002980068CAB203A900F006F80546E8B2A0
:101350007FB07FB01BB0F0BDF0B583B00291424EBC
:10136000F3683469B16935686D0005D53546083DC7
:101370003E4E2E603E4E2E603E4D40190190501C58
:101380000090002709E03C4908400299C95D090224
:1013900001437F1C0098B8423FD00198C219104603
:1013A00018301546193501D01E4604E0029DED5D4A
:1013B000FF26B3435E1915461135002801D0334688
:1013C00005E02D4806400298C05D030233431046F5
:1013D0001030002D01D0264604E0029DED5DFF2671
:1013E000B4436619551C002806D03446002D0BD096
:1013F0000846002A0FD1C6E71F4806400298C05D84
:1014000004023443002DF3D10298C05DFF25A943A7
:101410000818002AB7D00146BBE7134EF3603461C9
:10142000B161812040043168014331600021C9432A
:1014300000BFF166311F0A68D203FBD400BF0C68FD
:101440000A6801252A430A603168814331602C40D3
:1014500006D07920FFF7E8F9E806316801433160EA
:10146000204603B0F0BDC046142002403B2A1908B4
:101470007F6E5D4CE7CE00E0FF00FFFF70B584B0EB
:101480006D46012428462146FFF7A4F92E78B11CA9
:101490006D462846FFF79EF9701C295C02462B78A2
:1014A0005E406D1C521E1304F9D1B14213D10B4A98
:1014B00000216B465B5C25469D40AA43491C88423F
:1014C000F7D169460A70100A487005480122FFF7F3
:1014D00043FF04B070BD002004B070BDFFFF0000EA
:1014E0001831FF1FF0B587B0022105912F4A13680C
:1014F0000B43136012680A400192002404940121F6
:1015000003910425029586000A4FB859019902A952
:1015100000F036F9B8592946224600F009FA07B01A
:10152000F0BDC04680B5800002490858042100F093
:10153000F6F980BD0400002080B580001D490858E0
:10154000012100F0E7F980BD10B586B0002808D170
:10155000164A136802242343136012682240019242
:10156000019A0123049300220392019301290AD0D6
:10157000002919D1029280000E49085801A900F0F3
:10158000FFF806B010BD0A490291800009490858C9
:1015900001A900F0F5F805240F210022204600F0F3
:1015A0002BFA204600F01EFA06B010BD341002409F
:1015B000000021100000002070B584B0054601AE87
:1015C000052430462146FFF705F930790422002131
:1015D00033785940761C521E1304F9D188421BD12E
:1015E00003A87921017001263146FFF727F90198F8
:1015F00002BA2A6003203349334B9A420EDC394B3E
:101600009A421ADD384B9A4246D0384B9A4212D051
:10161000374B9A4222D023E0002640E02B4B9A42DF
:1016200013DD2B4B9A4239D02A4B9A420B4616D0E7
:10163000294B9A4214D1324B11E02E4B9A420DD0D5
:101640002D4B9A420B460AD00AE0244B9A420B4695
:1016500005D0234B9A4203D1064620E0274B2B604E
:101660001F22D3062A68D318264DAB4217D307236F
:101670005B07D318244DAB4201D202260FE0234B67
:10168000D3181B0B032B264609D3FF2314469C4378
:101690008C4207D1042602E0064600E006463046AA
:1016A00004B070BD110A1A4B99420646F7D019488A
:1016B0001018400A032801D3002000E00120860012
:1016C000EDE7C0460030FF1FABF7FF1FDFF7FF1F3E
:1016D000E0F7FF1FE8F7FF1F00F8FF1FACF7FF1F41
:1016E000CCF7FF1F217AFF1F227AFF1F00C0FF1FC8
:1016F000A6F6FF1FDE77FF1F107AFF1FFC0B000806
:101700000031FF1FFFFF0100FF3F0000000001E06C
:1017100031FF1F0000CE00E0B0B502234371036823
:101720009D68012425439D60002A03D020C91D60C7
:10173000521EFBD1196844710846B0BD10B500288F
:101740000CD004464079002804D1002020712046A6
:1017500000F006F801206071002010BD012010BDCE
:1017600081B00120000305490A6802430A60096844
:1017700001400091009801B07047C0463810024007
:10178000F0B589B00A68002A00D1B6E007465C4887
:10179000874201D0032000E00220009000231E4673
:1017A0001C4606A88AC00FE00598024355484260CF
:1017B0005B1C0A681046D840079D2D1D079508360A
:1017C000A41C002800D198E0012504959D402A40E2
:1017D000EED0029403960592486810220243122A22
:1017E00010D11C20079908400F218140DE08B60067
:1017F000BE19376A8F4306990A6982403A43089FA7
:1018000006993262032420460A461946029B9840F4
:101810003E68864352681746019427401C460B4693
:10182000A740374308990F60089FC043122A16D873
:10183000049E964035490E4211D0BE680640069976
:10184000CF68A740374308998F60D606F60F9E40B1
:1018500008994F68AF43374308994F60089FFD6868
:10186000054006998868A0402843F860D000039E90
:101870009ED5182030400F2585401A46019CA24372
:10188000204EB218146EAC43603205252D07AF42CE
:1018900005D01F4DAF42009D02D1049D00E0002500
:1018A000854025431560184802684868C503039EB3
:1018B000029C02D5059D2A4301E0059DAA43124DD5
:1018C0002A606A68850302D5059D2A4301E0059DCB
:1018D000AA430D4D6A600B4A1268C50202D5059DE8
:1018E0002A4301E0059DAA43064D2A606A688002EA
:1018F00000D559E70598824358E709B0F0BDC046C6
:10190000000800500018024080180240060006003F
:101910000004005000690840411E88417047426938
:101920000A4202D028228150704718228150704705
:10193000002A02D018228150704728228150704717
:10194000054800687047C0461A48006802490A689E
:10195000101808607047C0467403002080B503204B
:1019600000F008F8002801D0012080BD00F024F824
:10197000002080BDB0B505460E480168012400294D
:1019800016D07D20C000FEF7D7FB014686480068D0
:10199000FEF7D2FB00F0A4FB032D09D8002807D1E5
:1019A0000024E0432946224600F026F87F480560DF
:1019B0002046B0BD0C00002082B0094841680122D9
:1019C000114341604168114001910199110702687A
:1019D0000A430260006808400090009802B0704717
:1019E0003C1002401F21014001208840014908604D
:1019F0007047C04600E100E0002805D403220346FA
:101A00009343094A9A1803E00C220240074BD2186C
:101A10008007C00E8901C9B28140FF23834010684E
:101A2000984308431060704700E400E014ED00E0C4
:101A3000F0B583B00126002800D1ABE00D46019639
:101A4000029056480068032100910840A84214D231
:101A5000524908680326B04328430860504CFFF7FA
:101A60006FFF07464D4800683040A84205D0FFF799
:101A700067FFC01BA042F5D98CE0029F3868810740
:101A80006F4B0DD5410704D5072109031A680A4396
:101A90001A600F2109021A688A43B9681143196054
:101AA000C00719D13D48006803263040A8422AD912
:101AB0003A490868B04328430860394CFFF740FFB3
:101AC0000746364800683040A8421CD0FFF738FF70
:101AD000C01BA042F5D95DE0786804283DD881009C
:101AE00001A251588F46C046FD1A0008471B000846
:101AF000511B00085B1B00085F1B000819460839D2
:101B0000096849052DE0029A1078400707D507209B
:101B100000034B4B19688143D0680843186000F0FC
:101B200047F84749096889093C220A401D498958F4
:101B30001F220A40D0401C4908601C480068FFF77B
:101B400019FF064626E0194608390968890308E0A6
:101B5000194608390968890103E0996D00E0596D5B
:101B60008907019E16D51968072291430143196020
:101B70000B4CFFF7E5FE064631480068382101406E
:101B80007868C00081428DD0FFF7DAFE801BA0424A
:101B9000F2D9009E304603B0F0BDC046002002409E
:101BA00088130000183000080800002010000020F2
:101BB00010B5234908688006400F07D0086838230D
:101BC0001840204A082811D1104610BD081F0839B6
:101BD000096800680004400F042800D90020800034
:101BE0001D4A10588904490FC84010BD08681840A4
:101BF00010280CD148680323034048680C24044093
:101C000011A00059022B0ED05043032B10BD0A68BF
:101C10001A400120C003202A04D00968194018295D
:101C200000D0002010BD091F09680904490F0429CC
:101C300000D900218900084A5158484310BDC046C8
:101C40000810024000366E01020000000300000090
:101C5000020000000200000004300008F0B585B06A
:101C60000127002800D1E2E1029703900078C00725
:101C7000F94E1ED10398007880074AD40398007863
:101C8000000776D403980078400700D4A2E1B0683A
:101C900038210140202900D0BEE0F06D800700D43B
:101CA00095E10398C068002800D090E1002001274A
:101CB0008EE1B068F16803273A468A433821014033
:101CC00010204840821850425041082961D0002815
:101CD0005FD103984268002A07D08068002800D1AD
:101CE00039E13169B9430143316105200004824281
:101CF000019200D103E1012001048A4200D104E1F4
:101D0000EE49491E32680A403260810430688843D7
:101D1000FDE0B0683824044010206040F1680327DB
:101D2000394002224A40811848424841002C3BD0A9
:101D3000002839D13068039A5169002900D1CCE0DC
:101D40000721C902884391690143316001200102E2
:101D500032680A4332608402FFF7F2FD05463068BC
:101D6000204200D0EFE0FFF7EBFD401B0228F6D940
:101D70005DE1B06838210140182936D1306E800706
:101D800000D47FE70398006A002800D07AE7029F1A
:101D90004DE13068800300D46CE703984068002868
:101DA00000D067E7029F42E10197012730684005B4
:101DB000039B03D55869002800D138E100943246CE
:101DC000BE025068BD490140D869084314465060BE
:101DD000FFF7B6FD05462068304242D1FFF7B0FD5F
:101DE000401B0228F7D9019F21E1306E0399096A4F
:101DF000002900D1B1E0012108433066FFF7A0FDC2
:101E00000546306E800700D53CE7FFF799FD401B83
:101E100003270228F5D90AE101273907F06B0840AA
:101E2000019006D1F06B0843F063F06B084004901A
:101E300004980091A54C2068C00533D43E02206868
:101E400030432060FFF77CFD05462068304229D1F1
:101E5000FFF776FD401B0228F7D900200327964E96
:101E6000B6E000980028264614D10720C002316849
:101E700081430398806908433060FFF799FEB16899
:101E800089093C220A408E4989581F220A40D040C5
:101E90008C4908608C480068FFF76CFD002800D072
:101EA000C5E0EBE60398C468002C834E0AD00069B5
:101EB0008103890F00D178040321090432698A4320
:101EC00002433261052C59D0012C5BD0F06DB84330
:101ED000F065F06D0421884356E001210A02904329
:101EE00030608C02FFF72CFD05463068204200D19F
:101EF000C4E6FFF725FD401B0228F6D997E0012034
:101F0000810432680A43326001043068084330605B
:101F100001204404FFF714FD0546019800280ED067
:101F20003068204200D0A5E6FFF70AFD401BC82814
:101F3000F6D97CE0FFF704FD401BC82877D830684D
:101F40002042F7D196E670685C4901400398C06969
:101F50000843706092E6029F69E001218843306681
:101F6000FFF7EEFC0546306E800700D48AE6FFF7E7
:101F7000E7FC401B03270228F5D958E0F06D042147
:101F80000143F165F06D3843F065FFF7D9FC054674
:101F9000002C09D04E4CF06D800711D4FFF7D0FC17
:101FA000401BA042F7D908E0494CF06D800707D5E7
:101FB000FFF7C6FC401BA042F7D90020032707E02B
:101FC0000198002803D1F06B00998843F063012049
:101FD00000282CD00398406A002827D0B168382206
:101FE0000A40102A03D1012818D1029F1FE00123C3
:101FF0001A0631689143316002281BD10292019385
:102000005C06FFF79DFC05463068204226D0FFF7AE
:1020100097FC401B03270228F6D908E0F06803214B
:1020200001400398806A8142029F00D10027F8B2E4
:1020300005B0F0BDF0680327B843F0605D06FFF718
:102040007FFC044630682842F0D0FFF779FC001B83
:102050000228F7D9EBE7C046001002400398816AD6
:10206000C06A02290DD103220346934319A2D25814
:102070007368DB0A1C251D40184B5B599342019F76
:10208000D5D3F2680327BA430A43F260F1680C2201
:1020900091430143F1603068029908433060FFF7D3
:1020A0004FFC054630682042C0D1FFF749FC401B79
:1020B0000228F7D9BBE7C046001002400000FFFF2E
:1020C00018300008080000201000002000700040B8
:1020D00088130000001BB7000024F40064300008DF
:1020E000401E010E01D0012070470749074A506089
:1020F000074803680B400321890759180160002035
:102100009060072111607047FFFFFF0010E000E0C2
:1021100020ED00E0FEE770477047704780B5FFF79D
:1021200013FC80BD7F20400607490A68024007482B
:1021300000681043064A1268120402430A60012034
:10214000C006044908607047041002400832FF1FAF
:102150004833FF1F08ED00E0F0B589B0B14C2046D0
:102160000C38007821460A390D7821460B39097858
:102170000391A11E079109780191400712D5032010
:10218000C101A94C2046FDF7CCFF40206060A54C62
:1021900000F09EFCA01F01210170E01F00210170D2
:1021A000A2480170A01F07782F40F80700D181E0F6
:1021B0000021079801702278500727D4D00601D556
:1021C0008020207098480378002B05D00378954C28
:1021D000103C2370934C0170944D2B78062B67D8DC
:1021E0009B0002A4E3588F4C9F46C046652200081E
:1021F0008F220008B12200081B22000809220008D3
:10220000B12200080922000829704EE02078FB2244
:1022100002402270854801704AE0D10748D06278B8
:10222000002A834E08D0D0214158134634780C70D0
:10223000491C5B1E1C04F9D10346C83399688918F0
:102240009960196989181961C823C05A904200D849
:10225000DDE0002000F00EFC4820724C20700420CD
:10226000287025E0D10723D06178082920D10146C4
:10227000203108226E4D2B780B70491C521E13041E
:10228000F9D1C18C002900D1C5E04021C4E0426BE6
:10229000836B048DA24203D919198163111B01E0DC
:1022A0009A1882635F4C4163816B802000F0B0FB21
:1022B000FE200740002F51D0012605960BE0B96B98
:1022C00080203043C0B200F0A3FB089F06988743EC
:1022D000761C002F42D0F2B2059890403842F7D0D9
:1022E00006900897079806706079400703D56079D3
:1022F000FB21014061711420049250434A490F1898
:102300003A4638323D6B7C6B394630313B8D38462E
:1023100034309C4206D9ED180D601168C91811605F
:10232000E21A05E02D190D601168091911600022EB
:102330000260002AE14C3E4DC1D09A4200D31A46B9
:10234000002A08D004988000396B0B782B54491C64
:10235000521E1304F9D101206071B6E7E01F02900C
:102360000678039806404DD001231F4603930BE0E7
:10237000029A1078A8431070089800F07BFB039B2A
:10238000AE437F1C002E3DD0F8B21D46089085401C
:102390003542F6D007980770607AC007F0D00496EF
:1023A00014200899484320490B181846D03005904E
:1023B000C833A089069000281D480AD008998C00CF
:1023C00005990E68069A015D3170761C521E110443
:1023D000F9D1BA4E717AFE220A407272059A1168DA
:1023E000069809181160196909181961DA68141A30
:1023F000DC6034461B889842049E039BB8D382421B
:10240000BED1B5E707980199017009B0F0BD402031
:10241000AA4C20704CE748212170203000F09EFA31
:1024200046E7C046105C0040E00100206C0300203D
:10243000205C004080B5FFF78FFE80BDB0B582B054
:102440000D46044609480A49016000210191FFF741
:1024500075F9002800D0FEE7AA0804482146FFF7D6
:102460005BF90190019802B0B0BDC046C0010020E8
:1024700000300240F0B581B00F460546402901D238
:10248000002419E00097BF09012F00D8012700247C
:10249000134E01E0FEF742FE30780028FAD000200B
:1024A0003070A001281840226D49FDF721FE641C00
:1024B000BC42F1D1A401009F3F2007400DD0084E3F
:1024C0003078002802D1FEF729FEF9E700203070AD
:1024D000281963493A46FDF70BFE01B0F0BDC0462E
:1024E00061030020F0B593B00546402901D20027D2
:1024F0001DE002918F09012F00D801270026214CF1
:10250000019602E0761CBE420FD0B001291881204E
:10251000402200F0AFF900282ED40120207020784E
:102520000128EFD1FEF7FAFDF9E7B70102993F2044
:1025300001401FD003AE7018402302930C46591A75
:10254000FDF7EFFDE91930462246FDF7D1FD812068
:102550003146029A00F08EF900280FD4094C01256B
:102560002570207801280AD1FEF7D8FD20780128AF
:10257000FAD004E0012502E0019D00E00025284694
:1025800013B0F0BDD001002090B0FEF7A3FDFFF71F
:10259000E5F9002420462146FEF7D6FF2046FEF747
:1025A000A1FF2046FEF7C8FF002802D12248FDF710
:1025B00013FE04AD30212846FDF7B3FD0A94012037
:1025C00001020991022604960F940E960D9603942B
:1025D00002940194009419490968194A0A40C003F9
:1025E00010180B902846FFF739FB002808D0BFF3DE
:1025F0004F8F144814490160BFF34F8F00BFFDE7B0
:102600000394029401960720009068460121FFF789
:102610000FFA002808D0BFF34F8F0A480A4901601B
:10262000BFF34F8F00BFFDE70848FEF7FFFBFDF744
:10263000F3FDFDF713FEFCE7004000082032FF1F0A
:10264000FF1F00000CED00E00400FA050038014017
:1026500080B502200249402200F0DAF880BDC04671
:102660001400002010B57F240440BA4B991E0A784C
:102670000C7040B200280AD4002C13D0587A9F2442
:1026800004405C72587A802404435C7213E0002C8E
:102690000DD05879CF2404405C715879402404430C
:1026A0005C7108E01878FB2404401C7003E0187883
:1026B000FB2404401C700A70002010BD105C004018
:1026C00000207047F0B582B007787F263D46354040
:1026D00006D001460020072D12D9C04302B0F0BD3C
:1026E000C8209B4940220A520A850A46C832012363
:1026F00013710020907028310B71887002B0F0BD0A
:102700005B4A1378019315704C887FB2002F15D463
:1027100014276F438E4DED19C827EC5349784F1E8F
:102720007B427B419B019372C83501232B71A970B9
:10273000D17AC9070ED06F21C9430CE00123009361
:10274000AB40171F3E781E433E70497801291ED0CA
:1027500020271DE0F143D17211460C31082C00D81E
:102760000824641EE508072D00D307256D1C402CA6
:102770002E4600D301260E70EF494E68402C01D240
:10278000EB00F6184E600199117002B0F0BD6027A1
:10279000977114236B43E84DEB181C852833009D7B
:1027A0001D719970D179890701D5482100E0402138
:1027B000D17111460831082CD2D9D2E710B57F2447
:1027C0000440644B991E0A780C7040B2002806D46D
:1027D000002C0BD0587A202404435C7215E0002CA6
:1027E0000CD01879102404431C710EE05A480724B9
:1027F00004701878602404431C7006E056480724CF
:1028000004701878602404431C700A70002010BD06
:10281000F0B503460124E043002903D1002A01D08A
:10282000401CF0BD7F252B4014255D43C24E771917
:10283000CC257D5D002D19D00D4D2E782B70C8371D
:102840000020B960FA603861002A06D0002B09D058
:102850009C40691F0A78224306E0002B05D13E49BF
:10286000002201E03C4903220A702E70F0BDC046F0
:102870000E5C0040F0B585B003460226F043002907
:1028800004D1002A02D0801C05B0F0BD7F24234073
:1028900014245C43A84D2D192C4628342779002F89
:1028A00028D0049003962B4FBE1E307833707F796A
:1028B000FF073ED10290002029636A63A863002AC3
:1028C00004901AD001962588954200D315460095AC
:1028D000002D09D01F4A10329D00009F0E785655DA
:1028E000491C7F1E3E04F9D1002B0DD00121194A4D
:1028F00051711CE0401C05B0F0BD002B039B0CD0B7
:102900000121144A517113E0134901220A702188F0
:102910000098884208D20A2107E08749C98C00291B
:102920000C4C0AD0062109E003990A4A1170019E55
:1029300002983070049805B0F0BD0421064A117069
:102940001178012902D10A212170F1E72370EFE704
:10295000E0010020105C00406C03002070B501799C
:102960004279120251188279C3791B029A18120413
:1029700051188278C37804784078E74E0002001935
:102980001B029A181204101803C640B2083EF288BF
:10299000FF2102318A4205D3002803D48020FFF7AB
:1029A0000DFF70BD0021317534461C34B460F260F7
:1029B0003261002A06D0002804D400202146FFF707
:1029C00027FF70BD00F0BAF80028E7D03569F0881D
:1029D000854200D30546F560B168880708D001201C
:1029E0000002854212D820462A46FDF781FBB460DA
:1029F000B16880202A46FFF73DFF3069F1888842A0
:102A000004D23F21084001D10120307570BDC0467D
:102A100080B5802811D1C048826853188360C2688D
:102A2000521AC26014D1017D002916D0002101750F
:102A300080200A46FFF71EFF80BD4206D20DB64B2E
:102A40009A1847239B00D258002A00D0904780BD97
:102A500080201946FFF70EFF80BDC1880029F6D0FF
:102A6000002140560028F2D5002001460246FFF71B
:102A7000CFFE80BD80B500280AD04206D20DA64BFD
:102A80009A184F239B00D258002A00D0904780BD4F
:102A90000029FCD0A048826853188360C268521A8B
:102AA000C2600CD101461C31816000F047F800285B
:102AB0000AD0802000210A46FFF7DCFE80BD0020FE
:102AC0001946FFF7A5FE80BD8020FFF777FE80BD89
:102AD000B0B582B00024204600F022F857208000D4
:102AE0008D490C520C48019001AD2846FFF7EAFDD4
:102AF0002C702846FFF7E6FD0848046800E02468CB
:102B0000002C06D02269002AF9D00120002190472C
:102B1000F5E702B0B0BDC046800040007003002061
:102B2000002802D1034900220A70034908700020DE
:102B30007047C046005C0040E0010020F0B587B05F
:102B4000754C207860210140002540292DD0202996
:102B500040D0002900D0E0E1032630400027FD43AB
:102B6000022800D1A3E0012800D1AFE0002800D066
:102B7000CEE16078092800D9C7E1628801234000CE
:102B800078448088400087440900BE01C001BE012E
:102B9000C001F000AD01C001F600FC00A0680021FA
:102BA0000170A06841700227ADE15C480068002810
:102BB00034D0417962788A4242D1A188052900D176
:102BC000B9E0042900D0A8E18168A1608089206172
:102BD0000125A2E1032108400026F143012847D046
:102BE00002285FD104914E4F012503E029460029B8
:102BF00000D198E03F68002F00D193E0BB68002B24
:102C0000F4D0397F62798A422946F0D121460831D1
:102C100022461032204698473146E8E7ED480068E2
:102C200000280DD0817962788A4209D1A1880729CC
:102C300000D072E10168A1608088206101256CE10B
:102C4000E5480668002E00D167E1012703E03668F9
:102C5000002E00D161E1F368002BF8D02146083145
:102C600022461032204698470028F0D13D4654E1D4
:102C70000F46D94E012502E02946002953D0366877
:102C8000002E54D07368002BF6D02179327F8A420F
:102C90002946F2D121460831224610322046984773
:102CA0000021EAE7084600283FDB012535E1FF2047
:102CB0005E30205C002800D12AE1A08861780329D9
:102CC0003FD001294AD000291ED021E1FF273846F4
:102CD0005E30205C002800D11AE161780B2900D910
:102CE00016E1A088638849007944898849008F44A7
:102CF0000B000F010F010F010F010F018C000F01DD
:102D00000F010F019D00A300A06800250570A068B9
:102D1000457002202061FBE0540000206403002085
:102D20007003002004980028BFDA0025F5E038463B
:102D30000028FADBB9E70169A160808A20610125DA
:102D4000EBE06588002D02D1C0B2FFF737FD00200F
:102D50002061002D00D1DBE0C543D9E06188002966
:102D600000D1E7E000202061D2E0D0B21D46FFF79D
:102D7000D7FE2B46C7E0FF205E302018A060012759
:102D8000C1E0A069017800270029049700D192E0F2
:102D9000FF2500210491039500A92CC107E0E878E4
:102DA000029029786818695C002900D183E0054603
:102DB000407805280CD00428F1D00228F1D1D0B2F7
:102DC000697903918142184600D004980490E8E79D
:102DD000D0B20399C9B28142E3D102980028E0D170
:102DE000A97805A80170E9783140417029796A799C
:102DF00012025118794A11404180FFF763FC009A92
:102E0000019B414241410491CBE7190A22297FD11C
:102E10007149096800297BD0C2B20B7F9342F8D177
:102E200048698969A0602161002571E0A0680025DA
:102E30000570012020616BE0A1690A78002A7ED02C
:102E4000C2B20020049001A88CC005E0049028784C
:102E50002918285C002874D00D46487805280DD024
:102E60000428F4D1D8B2E97803918142284600D0F1
:102E70000498AF789742E9D00498E7E79742E6D103
:102E8000D8B20399C9B281420FD1A97806A80170BE
:102E9000E9783140417029796A79120251184F4A14
:102EA00011404180FFF70EFC02E0A878FFF708FC14
:102EB000029B019ACBE7049EF00723D057208000A5
:102EC00001212154FF205E3022544348056800E070
:102ED0002D68002D14D02A69002AF9D0072000217E
:102EE0009047F5E7D1B2100A032819D1EE2917D17E
:102EF00037480068002836D00168A160077902E0F1
:102F0000FFF7A6FB334627611F4601203840451EC8
:102F1000002D01DA002500E00125284607B0F0BDAC
:102F20000F2822D12E48006800281CD00168A1601B
:102F30004768E8E7C0B2FFF795FB0025E8E7002007
:102F4000049025480568002D049E05D100252561C3
:102F5000DEE72D68002DF9D02A69002AF9D0082073
:102F600031469047F5E70027CFE71546520A00277C
:102F7000022ACAD87F225202154001239A029542A2
:102F8000C3D00193A26915786B426B41002D0FD01D
:102F9000002606E0575D7B427B415219002F3D46DB
:102FA00006D05778B842F5D18E4201D0761CF1E7B1
:102FB000019F5F40D907A8D13B46A260022804D1F7
:102FC0009078D17809020F189DE717789BE7C046E3
:102FD000640300206803002070030020FF07000046
:102FE000CC01002002E008C8121F08C1002AFAD153
:102FF00070477047002001E001C1121F002AFBD179
:103000007047000000093D0000127A000024F4001F
:103010004086510100366E010000000000000000F3
:1030200000000000000000000000000000000000A0
:10303000000000000000000001000000020000008D
:10304000030000000400000006000000070000006C
:103050000800000009000000000102112131446352
:103060007382920300093D0000127A000024F400EC
:103070004086510100366E0100093D0000093D0007
:1030800000093D00C030000800000020C001000021
:103090009C010008E0300008C0010020B8050000D5
:1030A000F42F0008000000000000000000000000F5
:1030B0000000000000000000000000000000000010
:1030C0004E000400500004005000127A000102FF7C
:1030D0000401B20000000000000000000000000039
:04000005080000C12E
:00000001FF
