:020000040800F2
:1000000080070020D5000008571C0008551C000878
:1000100000000000000000000000000000000000E0
:10002000000000000000000000000000D51C0008D7
:100030000000000000000000B91C0008D71C0008E8
:10004000E7000008E7000008E7000008E7000008F4
:10005000E7000008E7000008E7000008E7000008E4
:10006000E7000008E7000008E7000008E7000008D4
:10007000E7000008E7000008E7000008E7000008C4
:10008000E7000008E7000008E7000008E7000008B4
:10009000E7000008E7000008E7000008E7000008A4
:1000A000E7000008E7000008E7000008E700000894
:1000B000E7000008E7000008E7000008811E0008CC
:1000C0000348854600F04EF80048004779210008B3
:1000D000800700200448804704480047FEE7FEE709
:1000E000FEE7FEE7FEE7FEE7E11C0008C1000008AE
:1000F00030B50B46014600202022012409E00D46C0
:10010000D5409D4205D31D469540491B2546954047
:1001100040191546521E002DF1DC30BD03460B433D
:100120009B0703D009E008C9121F08C0042AFAD2AD
:1001300003E00B780370401C491C521EF9D2704733
:10014000D2B201E00270401C491EFBD2704700226F
:10015000F6E710B513460A4604461946FFF7F0FFC6
:10016000204610BD064C0125064E05E0E36807CC8D
:100170002B430C3C98471034B442F7D3FFF7A4FF4D
:10018000E42D0008042E000870B58C180578401C7A
:100190006B075B0F01D10378401C2A1106D102784E
:1001A000401C03E006780E70401C491C5B1EF9D110
:1001B0002B0705D40023521E0DD40B70491CFAE7FF
:1001C0000378401CCB1A921C03E01D780D70491C6B
:1001D0005B1C521EF9D5A142D8D3002070BD00008F
:1001E0000C498A68D208D2008A608A689206520F47
:1001F000FBD10A6801231B069A430A600168064A7C
:1002000011405A01914204D14168006880F3088886
:1002100008477047001002400000FC2FF8B5124D4F
:10022000104CAE14114F16E06868C0B27F2805D19B
:1002300000202070792000F069F9F8BD286830436B
:1002400028606068401E6060002804D100F056FFFE
:100250003846FFF7C5FF00F0C1FC28688006EDD5E1
:10026000E2E70000180000200038014000400008CC
:10027000F0B58DB001260024022204A97F4800F0C9
:100280001FFD6846057C407C6840FF2804D01F2085
:1002900000F03CF90DB0F0BD312D1BD00EDC032D6C
:1002A00018D006DC002D15D0012D13D0022D14D14D
:1002B00010E0112D0ED0212D0FD10BE0732D09D0A0
:1002C00004DC442D06D0632D07D103E0822D01D03C
:1002D000922D02D1792000F019F9694F732D0BD0BE
:1002E00006DC312D08D0442D06D0632D14D103E057
:1002F000822D01D0922D0FD13869C00303D51F2064
:1003000000F004F9C6E77869002805DA5D48B860AE
:100310005D48B86000F06EFB0020312D5FD010DC2E
:100320000122032D45D007DC1021002D22D0012D04
:1003300031D0022D13D134E0112D46D0212D0ED114
:1003400049E01F22FF21732D55D004DC442D4AD0F3
:10035000632D04D14BE0822D5AD0922D63D000261C
:10036000732D78D073DC312D75D0442D73D0632D6F
:1003700076D170E00C2368466A460370022441700F
:10038000002042492346095C641CD154401CC0B281
:100390000C28F6D3E4E76A4611705070032490707D
:1003A000DEE769460A7004204870482003248870FC
:1003B000D6E769460A703648016809050A0F69469A
:1003C0004A70006803248870CAE700F08BFA06467A
:1003D000012E97D0C4E700F0DAF90646C0E700F036
:1003E00047FD0646BCE700F063F90646B8E700F0B3
:1003F0002FFE0646B4E76B461A74587408AB1970A2
:100400005970112204A9234800F0A6FD0646A7E76B
:100410005520694608741F48002204A9083800F0D6
:100420009BFD06469CE7AA266B461E74D8265E7482
:100430001A76587608AB1972597216481F2204A909
:10044000083800F089FD06468AE700E008E0822DC2
:1004500001D0922D04D178690121C9070843786140
:10046000012E09D01F2021466A46641C5054A1B2B7
:10047000684600F051F80DE77920F4E700380140B4
:100480000020024023016745AB89EFCD9C2D000879
:10049000005801400831FF1F08B50121684600F0EF
:1004A00003F86846007808BD10B5134A12781300A7
:1004B00001F0EAFC06040A10161C1F090A46014650
:1004C0000E4800F0FDFB10BD0A4601460C4800F046
:1004D000F7FB10BD0A4601460A4800F0F1FB10BDCB
:1004E0000A460146084800F0EBFB10BD01F0B8FDDC
:1004F00010BD00F05DF910BD18000020003801406B
:100500000044004000480040004C004001B501217B
:10051000684600F001F808BD10B5134A12781300C0
:1005200001F0B2FC06040A10161C1F090A46014617
:100530000E4800F0DAFB10BD0A4601460C4800F0F8
:10054000D4FB10BD0A4601460A4800F0CEFB10BDA0
:100550000A460146084800F0C8FB10BD01F0B0FD96
:1005600010BD00F063F910BD1800002000380140F4
:100570000044004000480040004C004010B54A488C
:100580000178042900D062B60222012447480B00FA
:1005900001F07AFC06041D3449735E1C416B490866
:1005A00049004163414A40321368012189038B436A
:1005B0001360426A22434262026B0A430263426A48
:1005C000520852004262026B8A43026310BD416BC3
:1005D000490849004163C26B012149048A43C2634F
:1005E000426A22434262C26A0A43C262426A5208B3
:1005F00052004262C26A8A43C26210BD416B91439B
:100600004163C36B012189048B43C363436A134372
:100610004362C36A0B43C362436A93434362C26A41
:100620008A43C26210BD426B04218A434263C36B9A
:100630004A049343C363436A0B434362C36A13434D
:10064000C362436A8B434362C16A9143C16210BD76
:10065000416B91434163C36B012149058B43C363E4
:10066000436A13434362C36A0B43C362436A9343BF
:100670004362C26A8A43C26210BD416B49084900A5
:100680004163C26B0121C9058A43C263426A2243A6
:100690004262C26A0A43C262426A5208520042621D
:1006A000C26A8A43C26210BD1800002000100240D6
:1006B000F0B591B0002502216846FFF7F5FE6946C6
:1006C0002C480978417069464C78477867404078F3
:1006D000FF2812D0601C46001090711C6846FFF77E
:1006E000E3FE3A463146684600F046F86F46B95D8B
:1006F000814210D0002011B0F0BD00A801210230CD
:10070000FFF7D2FE68468078B84201D00020F2E7B9
:1007100000F0C8F8EFE7600001F04CFD064600204D
:1007200008E041007A5C1202CB195B781A437252DE
:10073000401CC0B210998842F3D30E48407800287C
:1007400004D0102802D0202805D00025304601F022
:10075000E3FB2846CFE72146304601F0F3FC0028B2
:1007600005D02146304600F015F90546EEE7002594
:10077000ECE700001800002002E00378401C5A401B
:100780000B46491E89B2002BF7D11046704708B5B9
:10079000684600F00DFD012803D0022801D000209A
:1007A00008BDFFF7EBFE0098FFF71AFD012008BD1A
:1007B000F8B504460D46002000901B4E3068F11439
:1007C0008843306030684F103843306001E000F0FB
:1007D00005FA70698007FAD57069B069009011E078
:1007E00000F0FCF970694006FAD530692070641C8D
:1007F0006D1EADB27069400704D530692070641C6D
:100800006D1EADB2002DEDD101E000F0E7F9706989
:10081000C006FAD570690090306801210843306045
:100820003068B8433060F8BD00540040F8B5044665
:100830000D46002000901A4E3068F1148843306055
:1008400030684F103843306001E000F0C7F970693C
:100850008007FAD57069B069009011E000F0BEF928
:1008600070690006FAD52078641C30616D1EADB247
:100870007069400704D52078641C30616D1EADB2EC
:10088000002DEDD101E000F0A9F970694005FAD51D
:100890007069B84370613068B8433060F8BD0000DB
:1008A00000540040F8B50D4C0D49097F62038907DB
:1008B000890F491CC9038D18564297130AE0A019E5
:1008C000C000000C00900021684600F063F8012889
:1008D00002D1E419AC42F2D3F8BD00000040000898
:1008E000E031FF1F3EB502A800F062FC0446200084
:1008F0000BD002216846FFF7D7FD69460878497892
:100900004840FF2803D000203EBD00203EBD792096
:10091000FFF7FCFD1B490298411807D01A4A8918B5
:1009200004D0142902D0012C18D024E01748017FEC
:100930006A468907890F491C49015170002191704D
:10094000007F0007800F401C8000D070117111786B
:10095000501C491CFFF7E0FD01203EBD0C49096A0F
:10096000C9B2AA2907D0684601780020491CFFF7C0
:10097000D3FD01203EBD69460978491CFFF7CCFD37
:1009800001203EBDDE8500E05682FFFFE031FF1F03
:1009900000200240F8B507460024144D4E1C20E00C
:1009A000686913490843686100F018F96100795AD1
:1009B00000200122C0434903D20689180860286933
:1009C000C003FCD468690A49C943084068612869C2
:1009D000C00709D001202969012211432961641C43
:1009E000E4B2B442DCD3F8BD0020F8BD00200240E0
:1009F0000008000111488169CAB211490A60826980
:100A00001204120E0A618269D201D20D4A60026A92
:100A1000D2B28A60026A5201520DCA60826AD2035F
:100A2000D20B4A61026BD203D20B8A61826B92B203
:100A3000CA61806B000C086270470000C032FF1F63
:100A40000021024030B591B0302105A8FFF77FFBAF
:100A50000024019402940394049402250595E8016E
:100A60000A900B940F48A903008CC004C00C4018D6
:100A70000C900E950F95109405A800F08BFE0028A1
:100A800001D001F00BF90720019002950394049422
:100A9000012101A800F060FD002801D001F0FEF85E
:100AA00011B030BD0032FF1FF8B50446434B0122A0
:100AB00005200007950342499C4215D14B6B134317
:100AC0004B63C36803263605B34316059B19C36001
:100AD0000368B3430360436A8E1533434362384E61
:100AE000403633682B433360364B9C4213D14B6BFB
:100AF00013434B63C26893009B0822059B18C36095
:100B0000036893430360426AA3041A434262C86BBA
:100B1000DA121043C8632C48032201269205B60559
:100B2000844212D1486B0223184348632748C368A4
:100B300093439B19C3600368B3430360436A2B4329
:100B40004362C86B33111843C863214804258442AB
:100B500013D1486B284348631E48C36893439A19CE
:100B6000C2600268B2430260426A0F231B039A43C9
:100B70004262C86B6A041043C863E06801267603CA
:100B8000B043E060E0687710B843E060E068F110DF
:100B90008843E0601048E121490200684A1080184B
:100BA000FFF7A6FAA0606069B8436061E068284377
:100BB000E060E0683043E060F8BD000000380140CC
:100BC0000010024000440040004800400004005073
:100BD000004C00400008005000000020044801685C
:100BE0007F221143016004490248086070470000F9
:100BF000002C0040AAAA000000300040A0270423D7
:100C000030B541690122120391434161264A052111
:100C1000090790420ED1CB6803229204934301222C
:100C200092049B18CB600B6893430B604A6A1023B5
:100C30001A434A621D4A90420ED1CB680322120722
:100C4000934382049B18CB600B6893430B604A6A02
:100C500001231B061A434A621549032301221B057F
:100C6000120588420BD11349CC689C43A418CC6070
:100C70000C6894430C604C6A05152C434C620E4979
:100C800088420CD10D49CC689C43A318CB600B68FB
:100C900093430B604A6A0F231B029A434A62C1685E
:100CA00008221143C16030BD0038014000440040BB
:100CB0000048004000040050004C00400008005074
:100CC00070B506460D46144609E001F0F9F8FFF745
:100CD00085FF31688806F8D5706828706D1C20463D
:100CE000641EA4B20028F4D170BD70B504460E464F
:100CF000154608E03078761C606001E0FFF76EFF73
:100D000020680006FAD528466D1EADB20028F1D144
:100D100001E0FFF763FF20684006FAD52068402114
:100D20008843206070BD000000B50B48016AC9040B
:100D300005D40A494A68FF2381331A434A60006A8E
:100D4000000506D4074806490160072141600649AD
:100D50008160FFF743FF00BD00200240002C0040EF
:100D60005555000000300040FF0F0000FEB505465D
:100D700014460E4628062A46000E1CD02D0A2D02C7
:100D80000020D3B29E461B199C460AE0231A9B19E9
:100D9000203BDF7F63461B1A9B19203BDF77401CFB
:100DA00080B2A042F2D3002003E02B5C3354401CFD
:100DB00080B28645F9D8D0B2E3B2034310D01219FD
:100DC000FE32120A1202521E001980B2521B521C2D
:100DD00003E02B5C3354401C80B28242F9D894B2B9
:100DE000002700200090200A019028E0FFF7F6FE7F
:100DF0001D4B58691D490843586100204911F2599B
:100E0000EA513F1D3E2802D15A690A435A61401CEB
:100E100080B24028F3D31869C003FCD45869134941
:100E2000C943084058611869C0070ED001211869EC
:100E30000122104318610098401C80B20090009A73
:100E400001989042D2D800200AE00021FBE72A58FE
:100E500033589A4201D0002104E0001D241FA4B29F
:100E6000002CF4D10846FEBD002002400100000124
:100E700030B5D1B04EA800F09BF9509050A9087839
:100E800001280AD050A80078022806D050A800787F
:100E9000032802D0002051B030BDFFF7FDFA040254
:100EA000FFF7FAFA04434F9440A8808FFF212931BD
:100EB000884201D90020EEE740AA908F001D81B240
:100EC00003A8FFF7F1FA40AA908F03AC2018C0786E
:100ED000918F615C09060843918F928F6118497860
:100EE0000904A2189278120211430843029040AA02
:100EF000918F03A800F0F6FF0190029901988842B3
:100F000001D00020C7E750A80178012904D00229A8
:100F10000AD003291ED115E040A8828F03A94E985C
:100F2000FFF724FF054615E000204E9A03E0215C00
:100F30001154401C80B240A9898F491C8842F6D3C5
:100F4000012507E040A8808F03A9C2B24E9800F0A7
:100F500003F8054628469EE7F8B586461046384A07
:100F6000156A566AD76A5269520004D5344A354B1D
:100F7000D360354BD3600023FF221202401C84460D
:100F800032E07046C4183148844203D1280A000276
:100F9000CD5C05432D48401C844203D19543C85C79
:100FA0000002054329480830844203D1300A000278
:100FB000CE5C064325480930844203D19643C85C81
:100FC0000002064321481830844203D1380A000247
:100FD000CF5C07431D481930844203D19743CC5C52
:100FE000240227435B1C9BB26345CAD3144C256281
:100FF0006662E7626069812149040843606100BF5D
:1010000000200F4AC043803210602069C003FCD426
:1010100000BF2069C507ED0F206901221043206140
:10102000606988436061002D07D07920FFF76EFA70
:1010300060690121C906084360612846F8BD0000C7
:10104000002002403B2A19087F6E5D4C0031FF1FD3
:101050007FB5154CFFF720FA0546A91C6846FFF737
:1010600023FA2A46691C6846FFF786FB6A4651192F
:101070004978884202D0002004B070BD00200121D0
:101080006D1C05E0165C0B46B3409C43401C80B2CF
:10109000A842F7D369460C70200A48700122034821
:1010A000FFF75AFFE8E70000FFFF00001831FF1FBD
:1010B000F0B587B00E4A536B02210B435363526B5A
:1010C0000A4001920B4E4400325B029201220392CD
:1010D000002204920591084F8500785902A900F07A
:1010E00033F9315B7859002200F0C7F907B0F0BD41
:1010F00000100240AA2D00082C00002010B5054A5F
:101100004100515A044A80001058012200F0B5F9FC
:1011100010BD0000AA2D00082C00002010B5044AC4
:101120004100515A034A8000105800F09FF910BD49
:10113000AA2D00082C000020F0B587B004460E460A
:10114000002C07D11648426B02210A434263406BD0
:101150000840019013496000085A02900020049052
:1011600001210591A500104F002E04D1039078595C
:1011700002A900F0E9F8012E0FD10C48039078592C
:1011800002A900F0E1F8074D00222D1F28570F217A
:1011900000F0DEF9285700F0D1F907B0F0BD0000EB
:1011A00000100240AC2D000830000020000021108B
:1011B0007CB5044605216846FFF776F90022042134
:1011C0006846FFF7D9FA69460979884201D00020BC
:1011D0007CBD7920FFF79AF96A461178D078090624
:1011E0004018517892780904120289184118216038
:1011F0002C4A2D4B881A2D4D91422AD01DDC2C48AB
:101200000A1A814223D006DC2A48081809D02A4944
:10121000C84208D11DE02948101816D02849C842F4
:1012200001D1284820600122D20627492068904237
:1012300011D388420FD201207CBD202807D034284A
:1012400005D03C2805D05428EDD12560EBE70320DC
:101250007CBD2360E7E7012252071C49904203D37B
:10126000884201D202207CBD1949884203D39842AA
:1012700001D205207CBD984203D3A84201D20420AC
:101280007CBD1449A84203D3884201D203207CBD0F
:10129000114A884203D3904201D204207CBD002031
:1012A0007CBD0000ACF7FF1F0030FF1F0031FF1FA7
:1012B000227AFF1F228800E0CEFDFFFF22BAFFFF47
:1012C0005AC9FFFFFC0B0008FFFF0108FF3F002089
:1012D0000000FF1F0032FF1F0038FF1F70B5022300
:1012E000437103689D68012425439D60002304E049
:1012F0009D0006684D5935605B1C9342F8D3016828
:1013000009684471084670BD10B50446002C03D02E
:101310006079002802D006E0012010BD0020207175
:10132000204600F005F801206071002010BD00008B
:1013300008B50448826B81140A438263806B0840BD
:10134000009008BD00100240F0B5002281E00124A9
:101350009440A4462340002B7AD04C68022C01D044
:10136000122C0CD1D408A40027183D6A5407E40EAF
:101370000F26A640B5430E69A6402E433E6206687E
:1013800055000324AC40A6430F79BF07BF0FAF4001
:10139000374307604E68012E05D0022E03D0112E70
:1013A00001D0122E0ED18668A643CF68AF403743D6
:1013B000876047686646B7430E79F606F60F964093
:1013C0003E434660C668A6438C68AC403443C46064
:1013D0004C68E4003CD59508214CAD002F193D6EBA
:1013E0009407E40E0F26A640B54305263607B04203
:1013F00001D100260AE01B4EB04201D1012605E0D2
:10140000194EB04201D1022600E00326A6402E4329
:10141000134D3E66124E803634689C434F68FF037E
:1014200000D51C43346074689C434F68BF0300D5EB
:101430001C4374602C689C434E68F60200D51C4324
:101440002C606C689C434E68B60200D51C436C60EF
:10145000521C0B681C46D44000D078E7F0BD000059
:1014600000180240000400500008005042690A427F
:1014700001D08162704781617047002A01D081618B
:101480007047816270470000014880687047000023
:1014900034000020024881684268891881607047E2
:1014A0003400002010B50024032000F009F80028C3
:1014B00001D0012401E000F02BF8204610BD00000F
:1014C00070B505460024104E7168002919D07D20A2
:1014D000C000FEF70DFE01460C480068FEF708FE4E
:1014E00000F0A0FB002801D001240BE0042D06D25F
:1014F00000222946501E00F02BF8356002E001243E
:1015000000E00124204670BD3400002000000020CF
:1015100008B50948016801221143016000681040C4
:10152000009005484038C26B01040A43C263C06B97
:101530000840009008BD000040100240C106C90EDE
:1015400001208840014908607047000000E100E088
:1015500010B500F081FB10BDF8B504460D46002C17
:101560000FD0544800688007800FA84218D2514F0E
:1015700038688008800028433860FFF785FF0646FA
:1015800009E00120F8BDFFF77FFF811B4A48814237
:1015900001D90320F8BD38688007800FA842F2D136
:1015A0002068464E81070DD5400704D5B068072155
:1015B00009030843B060B0680F2109028843A1689D
:1015C0000843B0602078C0073BD0606801280CD089
:1015D00000280FD0022812D038494031042813D0F7
:1015E000096A890715D40120F8BD3168890310D430
:1015F0000120F8BD316849050BD40120F8BD3168E0
:10160000890106D40120F8BDC969890701D40120E8
:10161000F8BDB168C908C9000143B160FFF734FFE4
:10162000074607E0FFF730FFC11B2348814201D97D
:101630000320F8BDB068382108406168C9008842BD
:10164000F0D11C4801688907890FA94216D90168A1
:101650008908890029430160FFF716FF074607E064
:10166000FFF712FFC11B1448814201D90320F8BDC6
:10167000104800688007800FA842F1D12078400709
:1016800006D5B168072000038143E0680143B160DB
:1016900000F01CF8B1683C2289091140084A515CED
:1016A000C906C90EC8400749086007480068FFF727
:1016B00007FFF8BD00200240881300000010024020
:1016C0003C2D0008000000203400002010B58AB036
:1016D00014222D4905A8FEF721FD2B4801AC103836
:1016E000C36A826A416A006B0EC40490274A9068FC
:1016F00005AB8006400F18D090688006400F012887
:1017000023D090688006400F022820D09068800681
:10171000410F0120C003042905D091688906490FB3
:10172000032900D000200AB010BD106801218004F8
:10173000400F814050680004400F042800D9002069
:1017400080001858FEF7D4FCEDE71148EBE7D068AD
:101750008007800FD1680C24214001AC6158022819
:1017600007D0032802D009984843DCE708484843DB
:10177000D9E750680004400F042800D900208000F9
:1017800018584843CFE70000C02D00080010024061
:1017900000366E01F0B587B00446FC484268016827
:1017A00006920591C168806804910390002C0DD0C9
:1017B00020783827C007F64E00285FD0B068384040
:1017C000F1688907890F102803D004E0012007B0D1
:1017D000F0BD032915D0082813D06068002807D071
:1017E000A068002815D0316989088900014331615A
:1017F00001216068090488420DD1306808433060D7
:101800001CE03068800339D56068002836D101209B
:10181000DDE70120DBE7052301221B049204984247
:1018200006D130681043306030680843306005E00E
:1018300030688843306030689043306060680028CA
:101840000ED0FFF721FE054606E0FFF71DFE401B08
:10185000C82801D90320BAE730688003F5D50DE028
:10186000FFF712FE054606E0FFF70EFE401BC828F4
:1018700001D90320ABE730688003F5D420788007D6
:101880007BD5B5683D40F0688007800F102D01D1F1
:10189000022814D0002D12D0606900285AD0306878
:1018A0000721C9028843A169084330603068FF21DD
:1018B000013108433060FFF7E7FD054640E030683E
:1018C000400502D56069002809D07068E169000C04
:1018D000000408437060FFF7D7FD074608E00120C9
:1018E00075E7FFF7D1FDC01B022801D903206EE781
:1018F00030684005F5D5002D13D130680721C902A5
:101900008843A16908433060FFF7E0FEB1683C22DC
:10191000890911409F4A515CC906C90EC8409E49B9
:1019200008609E480068FFF7CBFD002825D0012005
:101930004DE7FFF7A9FD401B022801D9032046E728
:1019400030684005F5D57068E169000C0004084373
:10195000706012E03168FF20013081433160FFF791
:1019600093FD054606E0FFF78FFD401B022801D9D5
:1019700003202CE730684005F5D42078884D000717
:1019800034D5B0688006400F03280AD0206A0028AA
:101990001AD0286A012108432862FFF775FD07461F
:1019A0000EE0286A800721D5206A00281ED1012078
:1019B0000DE7FFF769FDC01B022801D9032006E7E8
:1019C000286A8007F5D511E0286A4008400028629F
:1019D000FFF75AFD074606E0FFF756FDC01B022839
:1019E00001D90320F3E6286A8007F5D42078400760
:1019F00072D500200290B0688006400F042818D0ED
:101A0000F06BC00009D4F16B012000070143F163C2
:101A1000F16B014001910120029062480168C90503
:101A20001AD40168821511430160FFF72DFD0746A6
:101A30000EE0E869800767D5E068002864D10120DE
:101A4000C5E6FFF721FDC01B022801D90320BEE631
:101A500054480068C005F4D5E068002808D0206923
:101A600081038A0F504917D032698A430243326199
:101A7000E068012817D00421052819D0E86940083A
:101A80004000E861E8698843E861E068002824D004
:101A9000FFF7FAFC07461BE030698843012149043F
:101AA00040183061E4E7E86901210843E861ECE7A8
:101AB000E8690843E861E86901210843E861E4E76F
:101AC000FFF7E2FCC11B3948814201D903207EE6C1
:101AD000E8698007F4D50FE016E0FFF7D5FC07466C
:101AE00007E0FFF7D1FCC11B3048814201D9032038
:101AF0006DE6E8698007F4D40298012804D1F06B00
:101B0000012109078843F063606A00286FD0B1683B
:101B10008906490F022977D001273F0602280AD0FB
:101B20003068B8433060F06880088000F060FFF7EC
:101B3000ABFC044664E03068B8433060FFF7A4FCB7
:101B4000054606E0FFF7A0FC401B022801D9032050
:101B50003DE630688001F5D4E06A8508A06A032874
:101B600009D1A90005AA5358114A93420CD803ABD6
:101B70005958914208D302281CD100F09FF8AA00BE
:101B800005A98958884215D2012020E6B02D000809
:101B9000001002403C2D000800000020340000200E
:101BA0004010024000700040000003008813000055
:101BB00000366E01F068A16A800880000843F0607A
:101BC000F0680C218843E16A0843F06030683843CC
:101BD0003060FFF759FC044606E0FFF755FC001B98
:101BE000022801D90320F2E530688001F5D517E01D
:101BF000FFF74AFC001B022802D90320E7E503E0B7
:101C000030688001F4D40BE0012807D0F068A16AA5
:101C10008007800F884203D00120D8E50120D6E557
:101C20000020D4E510B50949401E884201D90120A1
:101C300010BD074C60610321081F00F00DF8002063
:101C4000A06107202061002010BD0000FFFFFF0001
:101C500000E000E0FEE770478307FF22DB0E9A40BA
:101C60008907090E994000280BDA0007000F083891
:101C7000830808489B001818C36993430B43C3614A
:101C80007047830804489B001818036893430B436C
:101C90000360704700ED00E000E400E0BFF34F8F09
:101CA00004490348C860BFF34F8F00BFFDE7000041
:101CB0000400FA0500ED00E07047000003484068AA
:101CC0000004400F0249800008587047001002408D
:101CD0007C2D0008704710B5FFF7DCFB10BD00003D
:101CE00007494868074A400E12894006120410430B
:101CF000054A926810434860C803044988607047E9
:101D0000001002404033FF1F0032FF1F00ED00E0D3
:101D1000F0B585B0574E3479B5797079019000F0FF
:101D20007FFA009060070FD5FF2181315248FEF7FE
:101D30000EFA51484021416000F054FD0120B0727C
:101D4000002070724D490870B47A2C40E00706D02C
:101D5000002000F08BFA00F009F964086400012506
:101D600037E00127AF40274231D0284600F07EFA05
:101D7000707D400703D5707DFB21084070751420ED
:101D8000294641433C480818018D426B8A4208D9D4
:101D9000036B5B180363836B5B188363521A4263A4
:101DA00007E0036B9B180363836B9A18826300221E
:101DB0004263426B002A14D08A4200D211468AB292
:101DC000016B284600F058FA01207075BC436D1C69
:101DD000EDB2002CC5D12748477A0198074001266B
:101DE00041E0816B28468022104300F091FCEDE732
:101DF0000120B0403842039033D0304600F036FA2C
:101E00001C48417EC9072AD0858B142031464143A6
:101E100019482A460C18029480343046216D00F08F
:101E200015FA1448407E4108124849004176206D59
:101E300040192065A06D4119A165606D401B60656A
:101E4000029CC0342289AA4201D8002807D109483F
:101E5000437A039A93434372304600F08FFC039811
:101E60008743761CF6B2002FC2D1009800F0FEF92D
:101E700005B0F0BD005C00400002002050000020D2
:101E800010B5FFF745FF10BD30B47446641E2578C9
:101E9000641CAB4200D21D46635D5B00E31830BC9E
:101EA000184702E008C8121F08C1002AFAD170477B
:101EB0007047002001E001C1121F002AFBD17047CA
:101EC00010B506490868401C0860054A904203D9CD
:101ED00000200860FFF722F910BD0000200000205C
:101EE00050C3000038B505460C4600200090094953
:101EF000074808600846FFF707FA002800D0FEE709
:101F0000A20829460348FFF7E9F90090009838BD78
:101F1000003002402400002010B5002823D0124BCE
:101F20000022001F196803E0814203D80A4649686D
:101F30000029F9D1002A0AD01368841A9C4204D1DE
:101F4000006818181060104602E0506000E0186049
:101F5000002907D002680B1A934203D10B68D218EC
:101F600002604968416010BD54000020F8B5394D49
:101F7000287C00224107384E002905DA287CFB2105
:101F8000084028743270F8BDC10601D5802129743B
:101F9000324C2178002902D02178297022703178C2
:101FA0000B00FFF771FF07061E05315105510500B3
:101FB000E9E7C007E7D0687C0828E4D12749082270
:101FC00020310E46002000F041F9E08C002802D0BC
:101FD0004020287401E048202874304600F046FB79
:101FE000F8BD1E4B218D606B9B6B884204D95A183B
:101FF000A263401A606302E01818A0636263802045
:10200000A16B00F085FBF8BDC007FCD06F7C134CC2
:102010003A4680340020216D00F018F9206DC01977
:102020002065A06DC119A165204640300089B842E5
:1020300007D9002000F0A2FB48202874042030704B
:10204000F8BD40202874F8BD32700021802000F0D7
:102050005FFBF8BD005C0040500000200002002043
:10206000F8B507460E460024B009134D00900DE068
:10207000FEF7B4FD28780028FAD000202870A001CF
:10208000C01940220D49FEF749F8641C0098A0428F
:10209000F0D8B00602D1F8BDFEF7A0FD28780028E0
:1020A000FAD000202870B206A001920EC019034990
:1020B000FEF734F8F8BD0000040000205C000020AA
:1020C000F0B591B007460E460024B0091C4D1090A3
:1020D00013E0A001C1194022812000F055FA002828
:1020E00002DA002011B0F0BD0120687001E0FEF7B7
:1020F00075FD68780128FAD0641C1098A042E8D8D1
:10210000B0061BD040216846FEF721F8A001B206B8
:10211000C119920E6846FEF701F8402269468120F7
:1021200000F032FA002801DA0020DBE701206870B5
:1021300001E0FEF753FD68780128FAD00120D1E7CD
:102140000400002010B500224C00491C06E0035B8F
:10215000002B07D0012B05D0521C92B28A42F6D335
:10216000012010BD002010BD0248407F002800D093
:1021700001207047DC010020FEF7D6FDFFF792F941
:1021800000210846FEF7D8FF0020FEF791FFFEF77A
:1021900059FC074C2046FEF787FC2046FEF730FD31
:1021A000A520FEF7B3F9FEF739F8FEF761F8FCE772
:1021B00000380140F0B50B30C108C900144F0026AB
:1021C000144A0FE003688B420BD38B4205D95C1A8B
:1021D0004318456830C3083B00E04368136002C001
:1021E00004E0021D10680028ECD13046002803D11D
:1021F0003868002801D00020F0BD064A064810606B
:10220000064A121AD208D20044C001203860D7E72B
:102210005800002054000020840300208003002088
:102220000148807B70470000005C004003460120AD
:10223000C200934201D80A807047401CC0B20828EF
:10224000F6D900200880012070470000064B80006E
:10225000C018002A05D1704703780B70491C521E24
:1022600092B2002AF8D17047205C0040014988737F
:1022700070470000005C0040064B8000C018002A38
:1022800005D170470B78491C0370521E92B2002A88
:10229000F8D17047205C004070B505460E460648F0
:1022A000046806E02269002A02D031462846904799
:1022B0002468002CF6D170BD40000020F0B40378F3
:1022C0009C07174BA40F1B68012C11D0022C21D0A6
:1022D00022E05C68002C0AD0457906792D021C7F2B
:1022E0003543EDB2AC4202D15B68F0BC18471B68C5
:1022F000002BEED110E09C68002C0AD045790679BD
:102300002D021C7F35432D0AAC4202D19B68F0BCE4
:1023100018471B68002BEED1F0BC0020C04370476B
:102320004000002010B540220249022000F0E8F8E9
:1023300010BD00005C00002070B506467406640EF7
:10234000FFF76EFF05462046FFF790FF3206FB21A0
:102350001248002A0EDB002C08D0417E9F2211403B
:102360004176417E8022114341760DE0027C0A4095
:10237000027409E0002C0CD0417DCF221140417540
:10238000417D4022114341752846FFF76FFF002031
:1023900070BD027C0A400274F6E70000005C004059
:1023A00000207047FEB504460021019120784506C3
:1023B0006D0E0026374F002D03D0072D0ED9481E75
:1023C000FEBD34484023C030038181720122027374
:1023D0003B85A038817202730020FEBDFFF720FF0D
:1023E00000902846FFF742FF207801062A4822D4B1
:1023F00014214D43E9196288C0310A8162788A72DA
:1024000001220A736178012900D14026054606762B
:10241000687EC00702D09020687601E08020687650
:10242000608801A9FFF702FFA8767968684680886E
:102430000818786028E02946142359436288C9198E
:102440000A85627820318A7201220A73817AAA4051
:10245000114381726178012900D1402620210E4369
:1024600005460675687D800702D54820687501E03D
:1024700040206875608801A9FFF7D8FEA8757868C4
:1024800069468988401878600098FFF7EFFE0020C1
:10249000FEBD000000020020005C004070B5054653
:1024A0006C06640EFFF7BCFE06462046FFF7DEFE14
:1024B0002D060722104B60211048002D0BDB002C4D
:1024C00004D0417E2022114341760AE01A70027C3A
:1024D0000A43027405E0002C08D0017D102211434C
:1024E00001753046FFF7C2FE002070BD1A70027CF5
:1024F0000A430274F5E7000050000020005C004031
:10250000F8B50F4616464406640E002F03D1002E80
:1025100001D0481EF8BD20461421484317494518EC
:10252000CC20405D00281AD0FFF77AFE00902046AC
:10253000FFF79CFE80352F656E650021A965104868
:10254000002E0FD0002C15D00E49487A0122A2404F
:10255000104348720098FFF789FE0020F8BD012063
:10256000C043F8BD002C00D101700098FFF77EFE3B
:102570000020F8BD03210170ECE7000000020020FC
:1025800050000020005C0040F7B582B014464706BA
:102590007F0E0398002804D1002C02D0401E05B005
:1025A000F0BD14202E49784345182C20405D0028AA
:1025B0000FD0FFF735FE01903846FFF757FE294E42
:1025C000707DC00708D00198FFF750FE0220C0437D
:1025D000E5E70120C043E2E72149039828636C63E3
:1025E0000020A863002C11D0288DA04200D80446FA
:1025F000A2B238460399FFF73FFE002F23D00120F7
:1026000070750198FFF732FE0020C8E7002F06D052
:10261000012070750198FFF729FE0020BFE7C88CE4
:10262000002809D01048062101700F4800780128C1
:1026300006D002203074EDE70B4804210170F4E766
:102640000A203074E6E70848012101700448008D33
:10265000A04202D90A203074D3E702203074D0E7B8
:1026600000020020005C004050000020F8B5274C1C
:10267000014608222046FDF751FDE288FF27013779
:10268000BA4206D92078000603D48020FFF706FF5F
:10269000F8BD1E4D1D4E1C35B560F2603261002044
:1026A0003075002A07D02078000604D4294600207F
:1026B000FFF726FFF8BD154A2046103211460839AB
:1026C00000F0B6F900281CD0E0883269824200D3BD
:1026D0000246F260B168880705D0BA42EAD82846B7
:1026E000FDF71CFDB5608020F268B168FFF74CFF74
:1026F000E18830698142DDD98006DBD10120307567
:10270000F8BD8020FFF7CAFEF8BD00009C00002045
:1027100010B5194C802809D04206D20D1219FF328B
:102720000132D269002A00D0904710BD1248A26839
:102730005318A360E268521AE260002A04D01946D6
:102740008020FFF721FF10BD217D01290BD0C1881A
:102750000029F8D00078C009F5D0002211461046B3
:10276000FFF7CEFE10BD002020750022114680200C
:10277000FFF70AFF10BD00009C00002010B5184CA8
:10278000002809D04206D20D1219FF320132D26B55
:10279000002A00D0904710BD11480029FBD0A26844
:1027A0005318A360E268521AE260002A04D0194666
:1027B0000020FFF7A5FE10BD09491C31A1600A46A3
:1027C0000C3A143900F034F9002805D000221146E3
:1027D0008020FFF7D9FE10BD8020FFF75FFE10BDFF
:1027E0009C00002038B5002000F09AF80B48002427
:1027F000047744774020694648804C7080200870F8
:102800006846FFF7CFFD69460C706846FFF7CAFDC2
:1028100000210120FFF740FD38BD0000DC01002051
:10282000F0B503468C46002500201C0ADEB2234981
:10283000032C01D1EE2E08D00F2C12D0042C02D084
:10284000052C00D019D90020F0BD4868002806D01A
:10285000614603680B60007910600120F0BD002024
:10286000F0BDC868002806D0614603680B60406868
:1028700010600120F0BD0020F0BD11498B6908E017
:102880005978A14204D1B54201D1012004E06D1C68
:10289000FB181F78002FF3D10028EDD061460B60A4
:1028A000022C04D0072C02D019781160F0BD997861
:1028B000DB781B0219431160F0BD000040000020CE
:1028C0009C0000200149002048707047040000204F
:1028D00010B5044901200870402203490220FFF787
:1028E0000FFE10BD040000205C000020704708B5FA
:1028F00081786B4619704279037912021A435205A6
:10290000520D6B465A80C0788007800F5870084679
:10291000FFF746FD002801D0002008BD012008BDBA
:10292000002802D1034A00211170034908700020D9
:1029300070470000005C004000020020F3B581B049
:10294000074612488469FF26FF25002119E06078B8
:10295000022804D0042807D0052810D106E06579A4
:10296000BD420CD101210AE0E67808E0BD4206D163
:102970000298864203D1204600F00AF801462078EA
:10298000041920780028E2D10846FEBD9C000020F2
:1029900008B581786A4611704179027909021143BC
:1029A0004905490D6A465180C0788007800F5070F4
:1029B0006846FFF7F7FC002801D0002008BD012081
:1029C00008BD0000F3B581B018488469002000906C
:1029D000FF25FF2600271FE06078042802D0052885
:1029E00018D109E0E578A6780198864212D10298BC
:1029F00085420FD100940DE0019886420AD120460D
:102A000002998D4203D0FFF772FF074602E0FFF7FD
:102A1000BFFF07462078041920780028DCD1082061
:102A20000099FFF739FC3846FEBD00009C000020ED
:102A300010B5044623786020034005D0202B0DD02C
:102A4000402B15D0002010BD204600F01DF80028B6
:102A500018DA2046FFF74AFF002010BD2046FFF796
:102A60002DFC00280EDA2046FFF740FF002010BDA5
:102A7000204600F015F9002804DA2046FFF736FF5B
:102A8000002010BD012010BD70B5002403780E4D4C
:102A90009B079B0F06D0012B0AD0022B0ED02C4691
:102AA000204670BD00F012F80028F9D12C46F7E757
:102AB00000F09AF80028F3D12C46F1E700F052F824
:102AC0000028EDD12C46EBE7FFFFFFFFF8B50346EA
:102AD0001546D8789A780002104301245A780026C7
:102AE0001300FFF7D1F90C070E390E3910151A1C17
:102AF0002137373908680670086846700220286058
:102B00002BE02E6029E0C0B2FFF70AFF2E6024E020
:102B10002A46FFF785FE04461FE000241DE010480A
:102B200008600120286018E0C7B238460021FFF78E
:102B300005FF00280CD00A481D384777012101778E
:102B400000210720FFF7A8FBFFF7ECFB2E6004E055
:102B50000024FBE7002400E000242046F8BD00002C
:102B6000F9010020F7B582B0054616466879297943
:102B700000020843C0B201900124FFF7F5FA0028D3
:102B80000DD06878002700280BD0012812D0032828
:102B90001CD00C2826D00024204605B0F0BD002013
:102BA000FBE70398006807700398006847700220ED
:102BB0003060F1E7E878A9780002084302D00024E9
:102BC0003760E9E70198FFF7B7FBE5E7E878A97810
:102BD0000002084302D000243760DDE70198FFF7C8
:102BE0005DFCF9E70024D7E7FEB504460D4617461D
:102BF000E078A17800020843000A01906079217909
:102C000000020843C0B200900126FFF7ADFA002889
:102C10000AD060780300FFF737F90C09263D263DFE
:102C20003D113D3D3D282E3D0020FEBD2968002080
:102C3000087029684870022038602CE0019822282A
:102C40000FD1164800680AE0027F00998A4205D138
:102C500041692960806938600120FEBD0068002854
:102C6000F2D1002617E0002615E029680020087040
:102C7000012038600FE0E078A17800020843C1B27B
:102C80006079227900021043C0B2FFF79BFE00205A
:102C9000386000E000263046FEBD00004000002005
:102CA000F8B505460E4617462349486800281AD04D
:102CB0006978427991422CD169792A7909021143C4
:102CC000042904D0052908D00020C043F8BD81683C
:102CD0003160808938600020F8BD01693160808AE8
:102CE00038600020F8BD8868002812D069788279A1
:102CF00091420ED169792A7909021143072902D03C
:102D00000020C043F8BD0168316080883860002031
:102D1000F8BD0948046809E0E368002B05D03A468D
:102D2000314628469847002804D02468002CF3D167
:102D3000601EF8BD0020F8BD40000020000000002B
:102D40000000000000000000000000000000000083
:102D50000000000000000000000000000100000072
:102D60000200000003000000040000000600000054
:102D700007000000080000000900000000093D00F5
:102D800000127A000024F4004086510100366E01E2
:102D900000093D0000093D0000093D00000102114D
:102DA0002131446373829203050004000100000096
:102DB000001BB7000024F40000366E0100366E01DF
:102DC00000093D0000127A000024F4004086510101
:102DD00000366E0102000000030000000200000047
:102DE00002000000042E000800000020FC0100008A
:102DF00088010008242E0008FC0100208405000042
:102E0000B21E00081153127A328113C5283308020A
:102E10001AD10841E440420F12042A50043204023D
:042E2000FF0101C4E9
:04000005080000C12E
:00000001FF
