:020000040800F2
:1040000018020020D54000086B4B0008694B0008DF
:1040100000000000000000000000000000000000A0
:104020000000000000000000000000006F4B0008CE
:1040300000000000000000006D4B0008714B0008FC
:10404000E7400008E7400008E7400008E7400008B4
:10405000E7400008E7400008E7400008E7400008A4
:10406000E7400008E7400008E7400008E740000894
:10407000E7400008E7400008E7400008E740000884
:10408000E7400008E7400008E7400008E740000874
:10409000E7400008E7400008E7400008E740000864
:1040A000E7400008E7400008E7400008E740000854
:1040B000E7400008E7400008E7400008E740000844
:1040C0000348854600F046F800480047B14B000819
:1040D000180200200448804704480047FEE7FEE736
:1040E000FEE7FEE7FEE7FEE7794B0008C140000867
:1040F000D2B201E00270401C491EFBD27047002280
:10410000F6E710B513460A4604461946FFF7F0FFD6
:10411000204610BD70B50446002903D0002020229F
:10412000012310E0002801D00020C043C046C04653
:104130000DE02546D5408D4205D30D469540641BC4
:104140001D46954040191546521E002DF1DC2146B2
:1041500070BD00001CB50948009009480190054653
:104160000126009C05E0E36807CC33430C3C9847EC
:104170001034AC42F7D3FFF7A7FF0000C44C00088F
:10418000E44C0008F0B587B0022105910D4A136890
:104190000B43136012680A40019200240494012129
:1041A00003910425029586000B4FB859019902A985
:1041B00000F024F8B8592946224600F0ECF807B080
:1041C000F0BDC0463410024080B580000249085856
:1041D000042100F0D7F880BD00000020B0B50446EF
:1041E00000F0E2F80546601C02D08C480068041913
:1041F00000F0DAF8401BA042FAD3B0BDF0B58BB0A6
:1042000006900B68002B00D1B0E05948069A824214
:1042100001D0032000E00220009006982030019099
:1042200000270A973D460997059110E0224351481F
:1042300042607F1C0B681846F840099A08320992C0
:104240000A9A921C0A922D1D002800D18EE00124AA
:104250000794BC402340ECD0089503934868102293
:104260000243122A0A460DD11C20089908400F214A
:104270008140FE08B600019DAB598B431169814016
:104280001943A951049703273B460A9DAB40069961
:104290000E689E435268104602973840049FA8401B
:1042A00030430860DD43122A14D807989040334BFE
:1042B00018420FD0886828400599CB6806990A9E55
:1042C000B34003438B60D006C00FB8404B68A34394
:1042D00003434B60C86828400C4605998B680A9ECA
:1042E000B3400343E360D000089DA2D5384602994D
:1042F000884320490818016E05231B07069A9A4235
:1043000005D01F4B9A42009C02D1079C00E000247C
:104310001823099A13400F269E40B14360309C40F9
:104320000C4304601448026805994868C30302D529
:10433000039C224301E0039CA2430F4B1A605A687E
:10434000830301D5224300E0A2430B4B5A60094A84
:104350001268C30201D5224300E0A243054B1A6054
:104360005A68800200D561E7A24360E70BB0F0BD58
:1043700000080050001802408018024006000600A5
:104380000004005042690A4202D02822815070473E
:10439000182281507047002A02D01822815070479D
:1043A0002822815070470000054800687047C046C9
:1043B0001A48006802490A68101808607047C04629
:1043C0001000002080B5032000F008F8002801D07C
:1043D000012080BD00F024F8002080BDB0B5054666
:1043E0000E4801680124002916D07D20C000FFF787
:1043F00091FE014681480068FFF78CFE00F09AFBB1
:10440000032D09D8002807D10024E043294622467D
:1044100000F01CF87A4805602046B0BD0800002076
:1044200082B009484168012211434160416811404E
:1044300001910199110702680A430260006808406F
:104440000090009802B070473C100240002805D44C
:10445000032203469343094A9A1803E00C220240C0
:10446000074BD2188007C00E8901C9B28140FF23D3
:1044700083401068984308431060704700E400E0F0
:1044800014ED00E0F0B583B00126002800D1ABE0C8
:104490000D4601960290564800680321009108409D
:1044A000A84214D2524908680326B0432843086042
:1044B000504CFFF779FF07464D4800683040A8424E
:1044C00005D0FFF771FFC01BA042F5D98CE0029F19
:1044D000386881076F4B0DD5410704D507210903C3
:1044E0001A680A431A600F2109021A688A43B968D8
:1044F00011431960C00719D13D48006803263040B8
:10450000A8422AD93A490868B04328430860394C80
:10451000FFF74AFF0746364800683040A8421CD0E3
:10452000FFF742FFC01BA042F5D95DE07868042880
:104530003FD8810001A251588F46C046514500081E
:10454000A54500089B450008B3450008AF45000895
:1045500019460839096849052DE0029A1078400784
:1045600007D5072000034B4B19688143D0680843E7
:10457000186000F047F84749096889093C220A4059
:104580001D4989581F220A40D0401C4908601C4818
:104590000068FFF723FF064626E019460839096838
:1045A000890108E0194608390968890303E0596D53
:1045B00000E0996D8907019E16D51968072291437D
:1045C000014319600B4CFFF7EFFE064631480068C7
:1045D000382101407868C00081428DD0FFF7E4FEA9
:1045E000801BA042F2D9009E304603B0F0BDC04609
:1045F0000020024088130000644C000804000020E2
:104600000C00002010B5234908688006400F07D031
:10461000086838231840204A082811D1104610BDD8
:10462000081F0839096800680004400F042800D9F1
:10463000002080001D4A10588904490FC84010BD51
:104640000868184010280CD14868032303404868C4
:104650000C24044011A00059022B0ED05043032B10
:1046600010BD0A681A400120C003202A04D009683E
:104670001940182900D0002010BD091F096809043D
:10468000490F042900D900218900084A515848439C
:1046900010BDC0460810024000366E010200000046
:1046A000030000000200000002000000504C00085F
:1046B000F0B585B00127002800D1E1E10297039011
:1046C0000078C007F84C1CD1039C2078800743D4A5
:1046D0002078000771D42078400700D4A3E1F24A83
:1046E000906838210140202900D0B5E0D06D8007C6
:1046F00000D495E1E068002800D091E10020012776
:104700008FE1A068E16803273A468A4338210140D7
:104710001020484082185042504108295AD00028A1
:1047200058D103984368002B08D00398806800286C
:1047300000D183E12169B94301432161206805214A
:1047400009048B42019300D1F3E001210A04934252
:1047500000D0F6E01043FBE0EC4CA06838260640A1
:1047600010207040E1680327394002224A40811836
:1047700048424841002E37D0002835D12068012119
:104780008E02039B5A69002A00D1C0E00722D202A0
:1047900090439A6902432260080221680143216024
:1047A000FFF702FE05462068304200D0ECE0FFF73C
:1047B000FBFD401B0228F6D962E1D44A90683821FB
:1047C0000140182931D1106E800784D5206A002855
:1047D00081D133E12068800300D475E703984068F5
:1047E000002800D070E729E10197012720684005E3
:1047F00004D503984069002800D141E12246BC025B
:104800005068C34901400398C06908435060FFF7EE
:10481000CBFD0546BD480068204257D1FFF7C4FDD7
:10482000401B0228F6D9019F2AE1106E216A002957
:1048300000D1B2E0012108431066FFF7B5FD05463F
:10484000B248006E800700D545E7FFF7ADFD401B7D
:1048500003270228F4D913E101263107D06B084061
:10486000019006D1D06B0843D063D06B0840049010
:1048700004980091AA4F3868C0050FD434023868F4
:1048800020433860FFF790FD05463868204205D187
:10489000FFF78AFD401B0228F7D9ABE00398C768F1
:1048A000002F9A4B0AD000698103890F00D1700450
:1048B000032109041A698A4302431A61D86D052F3E
:1048C0007DD0012F00D080E0304383E0002E15D151
:1048D0000720C0028D4C21688143039880690843FA
:1048E0002060FFF78FFEA16889093C220A408949B0
:1048F00089581F220A40D0408749086087480068CD
:10490000FFF76CFD0028039C00D0B9E0E0E6090247
:1049100088432060FFF748FD054620683042039C2D
:1049200000D1D5E6FFF740FD401B0228774CF4D9B3
:10493000A6E001218A04104320600904206808438E
:1049400006E0734A521E10402060890420688843A4
:10495000206001204604FFF727FD05460198002846
:104960000ED02068304200D0AEE6FFF71DFD401BA0
:10497000C828F6D984E0FFF717FD401BC8287FD868
:1049800020683042F7D19FE6606861490140039A90
:10499000D0690843606014469AE601218843106696
:1049A000FFF702FD05465948006E800700D492E6E5
:1049B000FFF7FAFC401B03270228F4D960E004212A
:1049C0000843D865D86D304304E0B043D865D86D4E
:1049D00004218843D865FFF7E7FC0546514C002FBA
:1049E00011D04A48C06D800711D4FFF7DDFC401B91
:1049F000A042F6D900200327039C12E0FFF7D4FC65
:104A0000401BA042F6D84148C06D8007F6D40198FB
:104A10000028039C04D13D49C86B009A9043C863A9
:104A2000012000282CD0606A002828D0374B9968D4
:104A300038220A40102A03D1012819D1029F1FE011
:104A400001252A061968914319606E0602281AD1B9
:104A500002950392FFF7A8FC05462C4800683042F7
:104A600024D0FFF7A1FC401B03270228F5D907E05B
:104A7000D86803210140A06A8142029F00D100272B
:104A8000F8B205B0F0BDD8680327B843D860FFF787
:104A90008BFC04461D4800683042F0D0FFF784FCD0
:104AA000001B0228F6D9EBE700100240A16AE06A79
:104AB00002290ED10322034693431BA2D258134B63
:104AC0005B68DB0A1C241C40194B1B599342029F54
:104AD000D6D30E4BDA680327BA430A43DA60D968A3
:104AE0000C2291430143D960186803990843186068
:104AF000FFF75AFC0446054800683042BFD1FFF773
:104B000053FC001B0228F6D9BAE7C0460010024049
:104B10000000FFFF644C0008040000200C0000208F
:104B20000070004088130000001BB7000024F40050
:104B3000A44C0008401E010E01D001207047074917
:104B4000074A5060074803680B400321890759183A
:104B5000016000209060072111607047FFFFFF0097
:104B600010E000E020ED00E0FEE77047704770477E
:104B700080B5FFF71DFC80BD7F2041060848026814
:104B80000A40294909681143064A126812040A4377
:104B90000121490311430160034804490160704742
:104BA000041002404833FF1F08ED00E000400008F9
:104BB00090B0FFF707FC04AD30212846FFF79FFABD
:104BC00000240A940120010209910F210491039409
:104BD000029401940094144909680C9405940D9072
:104BE0000794124801400818401C0B902846FFF714
:104BF0005FFD002800D0FEE7039402940194072093
:104C0000009068462146FFF73DFC002800D0FEE7F3
:104C10000020FFF7B7FA0020FFF7D6FA7D20C0008A
:104C2000FFF7DCFAF7E7C0460832FF1FFF1F00005E
:104C300002E008C8121F08C1002AFAD17047704765
:104C4000002001E001C1121F002AFBD170470000C3
:104C500000093D0000127A000024F4004086510152
:104C600000366E010000000000000000000000009F
:104C70000000000000000000000000000000000034
:104C8000000000000100000002000000030000001E
:104C900004000000060000000700000008000000FB
:104CA0000900000000093D0000127A000024F40011
:104CB0004086510100366E0100093D0000093D00AB
:104CC00000093D00E84C0008000000201000000032
:104CD000304C0008F84C00081000002008020000CA
:104CE000404C0008000000000004005000127A0050
:084CF0000100000004000000B7
:04000005080040C1EE
:00000001FF
